{"abi":[{"type":"constructor","inputs":[],"stateMutability":"nonpayable"},{"type":"function","name":"approve","inputs":[{"name":"to","type":"address","internalType":"address"},{"name":"tokenId","type":"uint256","internalType":"uint256"}],"outputs":[],"stateMutability":"nonpayable"},{"type":"function","name":"balanceOf","inputs":[{"name":"owner","type":"address","internalType":"address"}],"outputs":[{"name":"","type":"uint256","internalType":"uint256"}],"stateMutability":"view"},{"type":"function","name":"currentTokenId","inputs":[],"outputs":[{"name":"","type":"uint256","internalType":"uint256"}],"stateMutability":"view"},{"type":"function","name":"getApproved","inputs":[{"name":"tokenId","type":"uint256","internalType":"uint256"}],"outputs":[{"name":"","type":"address","internalType":"address"}],"stateMutability":"view"},{"type":"function","name":"isApprovedForAll","inputs":[{"name":"owner","type":"address","internalType":"address"},{"name":"operator","type":"address","internalType":"address"}],"outputs":[{"name":"","type":"bool","internalType":"bool"}],"stateMutability":"view"},{"type":"function","name":"mint","inputs":[{"name":"typeToken","type":"uint256","internalType":"uint256"},{"name":"marketplace","type":"address","internalType":"address"}],"outputs":[{"name":"","type":"uint256","internalType":"uint256"}],"stateMutability":"payable"},{"type":"function","name":"name","inputs":[],"outputs":[{"name":"","type":"string","internalType":"string"}],"stateMutability":"view"},{"type":"function","name":"ownerOf","inputs":[{"name":"tokenId","type":"uint256","internalType":"uint256"}],"outputs":[{"name":"","type":"address","internalType":"address"}],"stateMutability":"view"},{"type":"function","name":"safeTransferFrom","inputs":[{"name":"from","type":"address","internalType":"address"},{"name":"to","type":"address","internalType":"address"},{"name":"tokenId","type":"uint256","internalType":"uint256"}],"outputs":[],"stateMutability":"nonpayable"},{"type":"function","name":"safeTransferFrom","inputs":[{"name":"from","type":"address","internalType":"address"},{"name":"to","type":"address","internalType":"address"},{"name":"tokenId","type":"uint256","internalType":"uint256"},{"name":"data","type":"bytes","internalType":"bytes"}],"outputs":[],"stateMutability":"nonpayable"},{"type":"function","name":"setApprovalForAll","inputs":[{"name":"operator","type":"address","internalType":"address"},{"name":"approved","type":"bool","internalType":"bool"}],"outputs":[],"stateMutability":"nonpayable"},{"type":"function","name":"supportsInterface","inputs":[{"name":"interfaceId","type":"bytes4","internalType":"bytes4"}],"outputs":[{"name":"","type":"bool","internalType":"bool"}],"stateMutability":"view"},{"type":"function","name":"symbol","inputs":[],"outputs":[{"name":"","type":"string","internalType":"string"}],"stateMutability":"view"},{"type":"function","name":"tokenURI","inputs":[{"name":"tokenId","type":"uint256","internalType":"uint256"}],"outputs":[{"name":"","type":"string","internalType":"string"}],"stateMutability":"view"},{"type":"function","name":"transferFrom","inputs":[{"name":"from","type":"address","internalType":"address"},{"name":"to","type":"address","internalType":"address"},{"name":"tokenId","type":"uint256","internalType":"uint256"}],"outputs":[],"stateMutability":"nonpayable"},{"type":"event","name":"Approval","inputs":[{"name":"owner","type":"address","indexed":true,"internalType":"address"},{"name":"approved","type":"address","indexed":true,"internalType":"address"},{"name":"tokenId","type":"uint256","indexed":true,"internalType":"uint256"}],"anonymous":false},{"type":"event","name":"ApprovalForAll","inputs":[{"name":"owner","type":"address","indexed":true,"internalType":"address"},{"name":"operator","type":"address","indexed":true,"internalType":"address"},{"name":"approved","type":"bool","indexed":false,"internalType":"bool"}],"anonymous":false},{"type":"event","name":"Transfer","inputs":[{"name":"from","type":"address","indexed":true,"internalType":"address"},{"name":"to","type":"address","indexed":true,"internalType":"address"},{"name":"tokenId","type":"uint256","indexed":true,"internalType":"uint256"}],"anonymous":false},{"type":"error","name":"ERC721IncorrectOwner","inputs":[{"name":"sender","type":"address","internalType":"address"},{"name":"tokenId","type":"uint256","internalType":"uint256"},{"name":"owner","type":"address","internalType":"address"}]},{"type":"error","name":"ERC721InsufficientApproval","inputs":[{"name":"operator","type":"address","internalType":"address"},{"name":"tokenId","type":"uint256","internalType":"uint256"}]},{"type":"error","name":"ERC721InvalidApprover","inputs":[{"name":"approver","type":"address","internalType":"address"}]},{"type":"error","name":"ERC721InvalidOperator","inputs":[{"name":"operator","type":"address","internalType":"address"}]},{"type":"error","name":"ERC721InvalidOwner","inputs":[{"name":"owner","type":"address","internalType":"address"}]},{"type":"error","name":"ERC721InvalidReceiver","inputs":[{"name":"receiver","type":"address","internalType":"address"}]},{"type":"error","name":"ERC721InvalidSender","inputs":[{"name":"sender","type":"address","internalType":"address"}]},{"type":"error","name":"ERC721NonexistentToken","inputs":[{"name":"tokenId","type":"uint256","internalType":"uint256"}]}],"bytecode":{"object":"0x608060405234801561001057600080fd5b506040518060400160405280600d81526020016c2a32b9ba29b4b6bab630ba37b960991b8152506040518060400160405280600381526020016254545360e81b81525081600090816100629190610118565b50600161006f8282610118565b5050506101d7565b634e487b7160e01b600052604160045260246000fd5b600181811c908216806100a157607f821691505b6020821081036100c157634e487b7160e01b600052602260045260246000fd5b50919050565b601f821115610113576000816000526020600020601f850160051c810160208610156100f05750805b601f850160051c820191505b8181101561010f578281556001016100fc565b5050505b505050565b81516001600160401b0381111561013157610131610077565b6101458161013f845461008d565b846100c7565b602080601f83116001811461017a57600084156101625750858301515b600019600386901b1c1916600185901b17855561010f565b600085815260208120601f198616915b828110156101a95788860151825594840194600190910190840161018a565b50858210156101c75787850151600019600388901b60f8161c191681555b5050505050600190811b01905550565b611134806101e66000396000f3fe6080604052600436106100e75760003560e01c80636352211e1161008a578063a22cb46511610059578063a22cb46514610269578063b88d4fde14610289578063c87b56dd146102a9578063e985e9c5146102c957600080fd5b80636352211e1461020157806370a082311461022157806394bf804d1461024157806395d89b411461025457600080fd5b8063081812fc116100c6578063081812fc14610167578063095ea7b31461019f57806323b872dd146101c157806342842e0e146101e157600080fd5b80629a9b7b146100ec57806301ffc9a71461011557806306fdde0314610145575b600080fd5b3480156100f857600080fd5b5061010260065481565b6040519081526020015b60405180910390f35b34801561012157600080fd5b50610135610130366004610d28565b6102e9565b604051901515815260200161010c565b34801561015157600080fd5b5061015a61033b565b60405161010c9190610d95565b34801561017357600080fd5b50610187610182366004610da8565b6103cd565b6040516001600160a01b03909116815260200161010c565b3480156101ab57600080fd5b506101bf6101ba366004610ddd565b6103f6565b005b3480156101cd57600080fd5b506101bf6101dc366004610e07565b610405565b3480156101ed57600080fd5b506101bf6101fc366004610e07565b610495565b34801561020d57600080fd5b5061018761021c366004610da8565b6104b5565b34801561022d57600080fd5b5061010261023c366004610e43565b6104c0565b61010261024f366004610e5e565b610508565b34801561026057600080fd5b5061015a610564565b34801561027557600080fd5b506101bf610284366004610e8a565b610573565b34801561029557600080fd5b506101bf6102a4366004610edc565b61057e565b3480156102b557600080fd5b5061015a6102c4366004610da8565b610595565b3480156102d557600080fd5b506101356102e4366004610fb8565b610609565b60006001600160e01b031982166380ac58cd60e01b148061031a57506001600160e01b03198216635b5e139f60e01b145b8061033557506301ffc9a760e01b6001600160e01b03198316145b92915050565b60606000805461034a90610fe2565b80601f016020809104026020016040519081016040528092919081815260200182805461037690610fe2565b80156103c35780601f10610398576101008083540402835291602001916103c3565b820191906000526020600020905b8154815290600101906020018083116103a657829003601f168201915b5050505050905090565b60006103d882610637565b506000828152600460205260409020546001600160a01b0316610335565b610401828233610670565b5050565b6001600160a01b03821661043457604051633250574960e11b8152600060048201526024015b60405180910390fd5b600061044183833361067d565b9050836001600160a01b0316816001600160a01b03161461048f576040516364283d7b60e01b81526001600160a01b038086166004830152602482018490528216604482015260640161042b565b50505050565b6104b08383836040518060200160405280600081525061057e565b505050565b600061033582610637565b60006001600160a01b0382166104ec576040516322718ad960e21b81526000600482015260240161042b565b506001600160a01b031660009081526003602052604090205490565b6000808360066000815461051b90611032565b918290555061052c906103e861104b565b6105369190611062565b90506105423382610776565b6001600160a01b0383161561055d5761055d83826000610670565b9392505050565b60606001805461034a90610fe2565b610401338383610790565b610589848484610405565b61048f8484848461082f565b60606105a082610637565b5060006105b860408051602081019091526000815290565b905060008151116105d8576040518060200160405280600081525061055d565b806105e284610958565b6040516020016105f3929190611075565b6040516020818303038152906040529392505050565b6001600160a01b03918216600090815260056020908152604080832093909416825291909152205460ff1690565b6000818152600260205260408120546001600160a01b03168061033557604051637e27328960e01b81526004810184905260240161042b565b6104b083838360016109eb565b6000828152600260205260408120546001600160a01b03908116908316156106aa576106aa818486610af1565b6001600160a01b038116156106e8576106c76000856000806109eb565b6001600160a01b038116600090815260036020526040902080546000190190555b6001600160a01b03851615610717576001600160a01b0385166000908152600360205260409020805460010190555b60008481526002602052604080822080546001600160a01b0319166001600160a01b0389811691821790925591518793918516917fddf252ad1be2c89b69c2b068fc378daa952ba7f163c4a11628f55a4df523b3ef91a4949350505050565b610401828260405180602001604052806000815250610b55565b6001600160a01b0382166107c257604051630b61174360e31b81526001600160a01b038316600482015260240161042b565b6001600160a01b03838116600081815260056020908152604080832094871680845294825291829020805460ff191686151590811790915591519182527f17307eab39ab6107e8899845ad3d59bd9653f200f220920489ca2b5937696c31910160405180910390a3505050565b6001600160a01b0383163b1561048f57604051630a85bd0160e11b81526001600160a01b0384169063150b7a02906108719033908890879087906004016110a4565b6020604051808303816000875af19250505080156108ac575060408051601f3d908101601f191682019092526108a9918101906110e1565b60015b610915573d8080156108da576040519150601f19603f3d011682016040523d82523d6000602084013e6108df565b606091505b50805160000361090d57604051633250574960e11b81526001600160a01b038516600482015260240161042b565b805181602001fd5b6001600160e01b03198116630a85bd0160e11b1461095157604051633250574960e11b81526001600160a01b038516600482015260240161042b565b5050505050565b6060600061096583610b6c565b600101905060008167ffffffffffffffff81111561098557610985610ec6565b6040519080825280601f01601f1916602001820160405280156109af576020820181803683370190505b5090508181016020015b600019016f181899199a1a9b1b9c1cb0b131b232b360811b600a86061a8153600a85049450846109b957509392505050565b80806109ff57506001600160a01b03821615155b15610ac1576000610a0f84610637565b90506001600160a01b03831615801590610a3b5750826001600160a01b0316816001600160a01b031614155b8015610a4e5750610a4c8184610609565b155b15610a775760405163a9fbf51f60e01b81526001600160a01b038416600482015260240161042b565b8115610abf5783856001600160a01b0316826001600160a01b03167f8c5be1e5ebec7d5bd14f71427d1e84f3dd0314c0f7b2291e5b200ac8c7c3b92560405160405180910390a45b505b5050600090815260046020526040902080546001600160a01b0319166001600160a01b0392909216919091179055565b610afc838383610c44565b6104b0576001600160a01b038316610b2a57604051637e27328960e01b81526004810182905260240161042b565b60405163177e802f60e01b81526001600160a01b03831660048201526024810182905260440161042b565b610b5f8383610caa565b6104b0600084848461082f565b60008072184f03e93ff9f4daa797ed6e38ed64bf6a1f0160401b8310610bab5772184f03e93ff9f4daa797ed6e38ed64bf6a1f0160401b830492506040015b6d04ee2d6d415b85acef81000000008310610bd7576d04ee2d6d415b85acef8100000000830492506020015b662386f26fc100008310610bf557662386f26fc10000830492506010015b6305f5e1008310610c0d576305f5e100830492506008015b6127108310610c2157612710830492506004015b60648310610c33576064830492506002015b600a83106103355760010192915050565b60006001600160a01b03831615801590610ca25750826001600160a01b0316846001600160a01b03161480610c7e5750610c7e8484610609565b80610ca257506000828152600460205260409020546001600160a01b038481169116145b949350505050565b6001600160a01b038216610cd457604051633250574960e11b81526000600482015260240161042b565b6000610ce28383600061067d565b90506001600160a01b038116156104b0576040516339e3563760e11b81526000600482015260240161042b565b6001600160e01b031981168114610d2557600080fd5b50565b600060208284031215610d3a57600080fd5b813561055d81610d0f565b60005b83811015610d60578181015183820152602001610d48565b50506000910152565b60008151808452610d81816020860160208601610d45565b601f01601f19169290920160200192915050565b60208152600061055d6020830184610d69565b600060208284031215610dba57600080fd5b5035919050565b80356001600160a01b0381168114610dd857600080fd5b919050565b60008060408385031215610df057600080fd5b610df983610dc1565b946020939093013593505050565b600080600060608486031215610e1c57600080fd5b610e2584610dc1565b9250610e3360208501610dc1565b9150604084013590509250925092565b600060208284031215610e5557600080fd5b61055d82610dc1565b60008060408385031215610e7157600080fd5b82359150610e8160208401610dc1565b90509250929050565b60008060408385031215610e9d57600080fd5b610ea683610dc1565b915060208301358015158114610ebb57600080fd5b809150509250929050565b634e487b7160e01b600052604160045260246000fd5b60008060008060808587031215610ef257600080fd5b610efb85610dc1565b9350610f0960208601610dc1565b925060408501359150606085013567ffffffffffffffff80821115610f2d57600080fd5b818701915087601f830112610f4157600080fd5b813581811115610f5357610f53610ec6565b604051601f8201601f19908116603f01168101908382118183101715610f7b57610f7b610ec6565b816040528281528a6020848701011115610f9457600080fd5b82602086016020830137600060208483010152809550505050505092959194509250565b60008060408385031215610fcb57600080fd5b610fd483610dc1565b9150610e8160208401610dc1565b600181811c90821680610ff657607f821691505b60208210810361101657634e487b7160e01b600052602260045260246000fd5b50919050565b634e487b7160e01b600052601160045260246000fd5b6000600182016110445761104461101c565b5060010190565b80820281158282048414176103355761033561101c565b808201808211156103355761033561101c565b60008351611087818460208801610d45565b83519083019061109b818360208801610d45565b01949350505050565b6001600160a01b03858116825284166020820152604081018390526080606082018190526000906110d790830184610d69565b9695505050505050565b6000602082840312156110f357600080fd5b815161055d81610d0f56fea264697066735822122016c1f970d460f75fd26079abe852b9094c90b5ce7b0d0d9a0f6c08e9474abfda64736f6c63430008190033","linkReferences":{}},"methodIdentifiers":{"approve(address,uint256)":"095ea7b3","balanceOf(address)":"70a08231","currentTokenId()":"009a9b7b","getApproved(uint256)":"081812fc","isApprovedForAll(address,address)":"e985e9c5","mint(uint256,address)":"94bf804d","name()":"06fdde03","ownerOf(uint256)":"6352211e","safeTransferFrom(address,address,uint256)":"42842e0e","safeTransferFrom(address,address,uint256,bytes)":"b88d4fde","setApprovalForAll(address,bool)":"a22cb465","supportsInterface(bytes4)":"01ffc9a7","symbol()":"95d89b41","tokenURI(uint256)":"c87b56dd","transferFrom(address,address,uint256)":"23b872dd"},"id":39}